{
  "address": "0x5B821A5fBb14d0D345F2e7017Ec58B8E26aabCEF",
  "abi": [
    {
      "inputs": [
        {
          "internalType": "address",
          "name": "_tokenAddress",
          "type": "address"
        }
      ],
      "stateMutability": "nonpayable",
      "type": "constructor"
    },
    {
      "anonymous": false,
      "inputs": [
        {
          "indexed": true,
          "internalType": "address",
          "name": "previousOwner",
          "type": "address"
        },
        {
          "indexed": true,
          "internalType": "address",
          "name": "newOwner",
          "type": "address"
        }
      ],
      "name": "OwnershipTransferred",
      "type": "event"
    },
    {
      "anonymous": false,
      "inputs": [
        {
          "indexed": true,
          "internalType": "uint256",
          "name": "fid",
          "type": "uint256"
        },
        {
          "indexed": true,
          "internalType": "bytes32",
          "name": "quizId",
          "type": "bytes32"
        },
        {
          "indexed": false,
          "internalType": "uint256",
          "name": "score",
          "type": "uint256"
        },
        {
          "indexed": false,
          "internalType": "uint256",
          "name": "timestamp",
          "type": "uint256"
        }
      ],
      "name": "QuizCompleted",
      "type": "event"
    },
    {
      "anonymous": false,
      "inputs": [
        {
          "indexed": true,
          "internalType": "bytes32",
          "name": "quizId",
          "type": "bytes32"
        },
        {
          "indexed": true,
          "internalType": "address",
          "name": "creator",
          "type": "address"
        }
      ],
      "name": "QuizCreated",
      "type": "event"
    },
    {
      "anonymous": false,
      "inputs": [
        {
          "indexed": true,
          "internalType": "uint256",
          "name": "fid",
          "type": "uint256"
        },
        {
          "indexed": true,
          "internalType": "bytes32",
          "name": "quizId",
          "type": "bytes32"
        },
        {
          "indexed": false,
          "internalType": "uint256",
          "name": "timestamp",
          "type": "uint256"
        }
      ],
      "name": "QuizStarted",
      "type": "event"
    },
    {
      "anonymous": false,
      "inputs": [
        {
          "indexed": true,
          "internalType": "uint256",
          "name": "fid",
          "type": "uint256"
        },
        {
          "indexed": false,
          "internalType": "bytes32",
          "name": "quizId",
          "type": "bytes32"
        },
        {
          "indexed": false,
          "internalType": "uint256",
          "name": "rewardAmount",
          "type": "uint256"
        }
      ],
      "name": "RewardClaimed",
      "type": "event"
    },
    {
      "anonymous": false,
      "inputs": [
        {
          "indexed": true,
          "internalType": "uint256",
          "name": "fid",
          "type": "uint256"
        },
        {
          "indexed": true,
          "internalType": "address",
          "name": "userAddress",
          "type": "address"
        }
      ],
      "name": "UserDataUpdated",
      "type": "event"
    },
    {
      "anonymous": false,
      "inputs": [
        {
          "indexed": true,
          "internalType": "uint256",
          "name": "fid",
          "type": "uint256"
        },
        {
          "indexed": false,
          "internalType": "address",
          "name": "",
          "type": "address"
        },
        {
          "indexed": false,
          "internalType": "uint256",
          "name": "score",
          "type": "uint256"
        }
      ],
      "name": "UserScoreUpdated",
      "type": "event"
    },
    {
      "inputs": [
        {
          "internalType": "uint256",
          "name": "fid",
          "type": "uint256"
        }
      ],
      "name": "calculateCumulativeScore",
      "outputs": [
        {
          "internalType": "uint256",
          "name": "",
          "type": "uint256"
        }
      ],
      "stateMutability": "view",
      "type": "function"
    },
    {
      "inputs": [
        {
          "internalType": "uint256",
          "name": "fid",
          "type": "uint256"
        },
        {
          "internalType": "bytes32",
          "name": "quizId",
          "type": "bytes32"
        },
        {
          "internalType": "address",
          "name": "recipient",
          "type": "address"
        }
      ],
      "name": "claimReward",
      "outputs": [],
      "stateMutability": "nonpayable",
      "type": "function"
    },
    {
      "inputs": [
        {
          "internalType": "uint256",
          "name": "_fid",
          "type": "uint256"
        },
        {
          "internalType": "bytes32",
          "name": "_quizId",
          "type": "bytes32"
        },
        {
          "internalType": "uint256",
          "name": "_score",
          "type": "uint256"
        }
      ],
      "name": "completeQuiz",
      "outputs": [
        {
          "internalType": "bool",
          "name": "",
          "type": "bool"
        }
      ],
      "stateMutability": "nonpayable",
      "type": "function"
    },
    {
      "inputs": [
        {
          "internalType": "string",
          "name": "_quizHash",
          "type": "string"
        },
        {
          "internalType": "uint256",
          "name": "_threshold",
          "type": "uint256"
        }
      ],
      "name": "createQuiz",
      "outputs": [
        {
          "internalType": "bytes32",
          "name": "quizId",
          "type": "bytes32"
        }
      ],
      "stateMutability": "nonpayable",
      "type": "function"
    },
    {
      "inputs": [
        {
          "internalType": "uint256",
          "name": "fid",
          "type": "uint256"
        }
      ],
      "name": "getUserData",
      "outputs": [
        {
          "internalType": "address",
          "name": "",
          "type": "address"
        },
        {
          "internalType": "uint256",
          "name": "",
          "type": "uint256"
        }
      ],
      "stateMutability": "view",
      "type": "function"
    },
    {
      "inputs": [],
      "name": "owner",
      "outputs": [
        {
          "internalType": "address",
          "name": "",
          "type": "address"
        }
      ],
      "stateMutability": "view",
      "type": "function"
    },
    {
      "inputs": [],
      "name": "renounceOwnership",
      "outputs": [],
      "stateMutability": "nonpayable",
      "type": "function"
    },
    {
      "inputs": [
        {
          "internalType": "uint256",
          "name": "_fid",
          "type": "uint256"
        },
        {
          "internalType": "bytes32",
          "name": "_quizId",
          "type": "bytes32"
        }
      ],
      "name": "restartQuiz",
      "outputs": [],
      "stateMutability": "nonpayable",
      "type": "function"
    },
    {
      "inputs": [
        {
          "internalType": "uint256",
          "name": "_fid",
          "type": "uint256"
        },
        {
          "internalType": "bytes32",
          "name": "_quizId",
          "type": "bytes32"
        }
      ],
      "name": "startQuiz",
      "outputs": [
        {
          "components": [
            {
              "internalType": "string",
              "name": "quizHash",
              "type": "string"
            },
            {
              "internalType": "uint256",
              "name": "threshold",
              "type": "uint256"
            },
            {
              "internalType": "address",
              "name": "creator",
              "type": "address"
            }
          ],
          "internalType": "struct Quizer.Quiz",
          "name": "quiz",
          "type": "tuple"
        }
      ],
      "stateMutability": "nonpayable",
      "type": "function"
    },
    {
      "inputs": [
        {
          "internalType": "address",
          "name": "newOwner",
          "type": "address"
        }
      ],
      "name": "transferOwnership",
      "outputs": [],
      "stateMutability": "nonpayable",
      "type": "function"
    },
    {
      "inputs": [
        {
          "internalType": "uint256",
          "name": "fid",
          "type": "uint256"
        },
        {
          "internalType": "address",
          "name": "userAddress",
          "type": "address"
        }
      ],
      "name": "updateUserData",
      "outputs": [],
      "stateMutability": "nonpayable",
      "type": "function"
    },
    {
      "stateMutability": "payable",
      "type": "receive"
    }
  ],
  "transactionHash": "0x2d567730ecd4c847f8794cac18fe51a22e6ede40d30beac9efee1f094a13338a",
  "args": [
    "0xBebD603574FB8768aA8077e51ED1B00e80207Ee1"
  ],
  "numDeployments": 1,
  "solcInputHash": "6a735bce4f42dc8c99f7523a76f2c165",
  "bytecode": "0x608060405234801561001057600080fd5b506040516116cf3803806116cf83398101604081905261002f916100b7565b61003833610067565b600280546001600160a01b039092166001600160a01b03199283168117909155600180549092161790556100e7565b600080546001600160a01b038381166001600160a01b0319831681178455604051919092169283917f8be0079c531659141344cd1fd0a4f28419497f9722a3daafe3b4186f6b6457e09190a35050565b6000602082840312156100c957600080fd5b81516001600160a01b03811681146100e057600080fd5b9392505050565b6115d9806100f66000396000f3fe6080604052600436106100a05760003560e01c806381bb6d4b1161006457806381bb6d4b146101b15780638da5cb5b146101d15780638f892157146101f95780639781f81e14610219578063c6d32e2c14610239578063f2fde38b1461025957600080fd5b80631fef580c146100ac57806333f159d01461010f57806354a7128a1461013d57806355e06d831461016a578063715018a61461019a57600080fd5b366100a757005b600080fd5b3480156100b857600080fd5b506100eb6100c73660046110e3565b600090815260056020526040902080546001909101546001600160a01b0390911691565b604080516001600160a01b0390931683526020830191909152015b60405180910390f35b34801561011b57600080fd5b5061012f61012a366004611112565b610279565b604051908152602001610106565b34801561014957600080fd5b5061015d6101583660046111c7565b6103a1565b604051610106919061120d565b34801561017657600080fd5b5061018a610185366004611267565b61056f565b6040519015158152602001610106565b3480156101a657600080fd5b506101af610725565b005b3480156101bd57600080fd5b506101af6101cc3660046111c7565b610739565b3480156101dd57600080fd5b506000546040516001600160a01b039091168152602001610106565b34801561020557600080fd5b5061012f6102143660046110e3565b61087a565b34801561022557600080fd5b506101af6102343660046112af565b610984565b34801561024557600080fd5b506101af6102543660046112e4565b610b4b565b34801561026557600080fd5b506101af610274366004611310565b610bac565b6000600a8211801561028c575060648211155b6102dd5760405162461bcd60e51b815260206004820152601c60248201527f496e76616c6964207468726573686f6c642070657263656e746167650000000060448201526064015b60405180910390fd5b8282336040516020016102f293929190611332565b60408051601f198184030181528282528051602091820120606084018352868452838201869052338484015260008181526004909252919020825191935090819061033d90826113f4565b5060208201516001820155604091820151600290910180546001600160a01b0319166001600160a01b0390921691909117905551339082907f0dc171d64f02db726d136b17b3dffcfbe8be27a977acf08fc34d1d8f4ad0066690600090a392915050565b6103ce6040518060600160405280606081526020016000815260200160006001600160a01b031681525090565b600082815260046020526040902080546103e79061136b565b90506000036104295760405162461bcd60e51b815260206004820152600e60248201526d125b9d985b1a59081c5d5a5e925960921b60448201526064016102d4565b6000838152600560205260409020546001600160a01b03166104515761045183600080610c25565b600083815260036020908152604080832085845290915281205460ff16600281111561047f5761047f6114b4565b146104da5760405162461bcd60e51b815260206004820152602560248201527f5175697a20616c726561647920696e2070726f6772657373206f7220636f6d706044820152641b195d195960da1b60648201526084016102d4565b60008381526006602090815260408220805460018101825590835291200182905561050482610ca1565b6000848152600360209081526040808320868452825291829020805460ff1916600117815542600290910181905582519081529151929350849286927f1db1cc550a1625237c7770fac57b0576ebfba720e335855f9291568dabd04e8b92908290030190a392915050565b6000610579610d9c565b6001600085815260036020908152604080832087845290915290205460ff1660028111156105a9576105a96114b4565b146105e95760405162461bcd60e51b815260206004820152601060248201526f145d5a5e881b9bdd081cdd185c9d195960821b60448201526064016102d4565b600084815260036020908152604080832086845290915281209060056106108560646114e0565b61061a91906114f7565b600483015490915060009062010000900460ff161561065157600a6106408360076114e0565b61064a91906114f7565b9050610654565b50805b605081106106845760008781526003602090815260408083208984529091529020600401805460ff191660011790555b600061068f8861087a565b6000898152600560209081526040918290206001908101849055875460ff191660021788558701859055426003880181905582518681529182015291925088918a917f8e27c355c101631912fb84bb62cbd0f15c5c7416bea88bab24fbe4735268c274910160405180910390a3505050600094855250506003602090815260408085209385529290525090206004015460ff1690565b61072d610d9c565b6107376000610df6565b565b6001600083815260036020908152604080832085845290915290205460ff166002811115610769576107696114b4565b14806107a257506002600083815260036020908152604080832085845290915290205460ff1660028111156107a0576107a06114b4565b145b6107e15760405162461bcd60e51b815260206004820152601060248201526f145d5a5e881b9bdd0814dd185c9d195960821b60448201526064016102d4565b600082815260036020908152604080832084845290915290206004015462010000900460ff161561084d5760405162461bcd60e51b8152602060048201526016602482015275145d5a5e88185b1c9958591e481c995cdd185c9d195960521b60448201526064016102d4565b60009182526003602090815260408084209284529190529020600401805462ff0000191662010000179055565b600081815260066020526040812054819081906108989060646114e0565b905060005b6000858152600660205260409020548110156109535760008581526006602052604081208054839081106108d3576108d3611519565b60009182526020909120015490506002600087815260036020908152604080832085845290915290205460ff166002811115610911576109116114b4565b0361094057600086815260036020908152604080832084845290915290206001015461093d908561152f565b93505b508061094b81611542565b91505061089d565b5080600003610966575060009392505050565b806109728360646114e0565b61097c91906114f7565b949350505050565b600083815260036020908152604080832085845290915290206004015460ff166109f05760405162461bcd60e51b815260206004820152601760248201527f4e6f7420656c696769626c6520666f722072657761726400000000000000000060448201526064016102d4565b6000838152600360209081526040808320858452909152902060040154610100900460ff1615610a5b5760405162461bcd60e51b815260206004820152601660248201527514995dd85c9908185b1c9958591e4818db185a5b595960521b60448201526064016102d4565b6000546001600160a01b0316331480610a8a57506000838152600560205260409020546001600160a01b031633145b610acb5760405162461bcd60e51b8152602060048201526012602482015271556e617574686f72697a656420636c61696d60701b60448201526064016102d4565b6000610ad78484610e46565b9050610ae38282610ee6565b6000848152600360209081526040808320868452825291829020600401805461ff001916610100179055815185815290810183905285917f59e1733196037919c757919aca3893d4624ebbea78a075ac7f0460aaa5277b03910160405180910390a250505050565b610b53610d9c565b60008281526005602052604080822080546001600160a01b0319166001600160a01b03851690811782559151909285917f0977de286bff160ea2e067a717ea7e46754a77110648bebd1583edd9496d50a69190a3505050565b610bb4610d9c565b6001600160a01b038116610c195760405162461bcd60e51b815260206004820152602660248201527f4f776e61626c653a206e6577206f776e657220697320746865207a65726f206160448201526564647265737360d01b60648201526084016102d4565b610c2281610df6565b50565b6040805180820182526001600160a01b03848116808352602080840186815260008981526005909252858220945185546001600160a01b031916941693909317845591516001909301929092559151909185917f0977de286bff160ea2e067a717ea7e46754a77110648bebd1583edd9496d50a69190a3505050565b610cce6040518060600160405280606081526020016000815260200160006001600160a01b031681525090565b60008281526004602052604090819020815160608101909252805482908290610cf69061136b565b80601f0160208091040260200160405190810160405280929190818152602001828054610d229061136b565b8015610d6f5780601f10610d4457610100808354040283529160200191610d6f565b820191906000526020600020905b815481529060010190602001808311610d5257829003601f168201915b5050509183525050600182015460208201526002909101546001600160a01b031660409091015292915050565b6000546001600160a01b031633146107375760405162461bcd60e51b815260206004820181905260248201527f4f776e61626c653a2063616c6c6572206973206e6f7420746865206f776e657260448201526064016102d4565b600080546001600160a01b038381166001600160a01b0319831681178455604051919092169283917f8be0079c531659141344cd1fd0a4f28419497f9722a3daafe3b4186f6b6457e09190a35050565b60008281526003602081815260408084208585529091528220600281015491810154600182015491929184610e7b848461155b565b9050610e106064600a8083851015610eaf5783610e98868261155b565b610ea291906114f7565b610eac90826114e0565b90505b610eb983876114f7565b610ec390826114e0565b9050818110610ed25780610ed4565b815b99505050505050505050505b92915050565b6002546001600160a01b0316610f365760405162461bcd60e51b8152602060048201526015602482015274151bdad95b881859191c995cdcc81b9bdd081cd95d605a1b60448201526064016102d4565b6001546040516370a0823160e01b815230600482015282916001600160a01b0316906370a0823190602401602060405180830381865afa158015610f7e573d6000803e3d6000fd5b505050506040513d601f19601f82011682018060405250810190610fa2919061156e565b1015610fe75760405162461bcd60e51b8152602060048201526014602482015273496e73756666696369656e742062616c616e636560601b60448201526064016102d4565b6040516001600160a01b03831660248201526044810182905260009060640160408051601f198184030181529181526020820180516001600160e01b031663a9059cbb60e01b17905260015490519192506000916001600160a01b0390911690611052908490611587565b6000604051808303816000865af19150503d806000811461108f576040519150601f19603f3d011682016040523d82523d6000602084013e611094565b606091505b50509050806110dd5760405162461bcd60e51b8152602060048201526015602482015274151bdad95b881d1c985b9cd9995c8819985a5b1959605a1b60448201526064016102d4565b50505050565b6000602082840312156110f557600080fd5b5035919050565b634e487b7160e01b600052604160045260246000fd5b6000806040838503121561112557600080fd5b823567ffffffffffffffff8082111561113d57600080fd5b818501915085601f83011261115157600080fd5b813581811115611163576111636110fc565b604051601f8201601f19908116603f0116810190838211818310171561118b5761118b6110fc565b816040528281528860208487010111156111a457600080fd5b826020860160208301376000602093820184015298969091013596505050505050565b600080604083850312156111da57600080fd5b50508035926020909101359150565b60005b838110156112045781810151838201526020016111ec565b50506000910152565b60208152600082516060602084015280518060808501526112358160a08601602085016111e9565b6020850151604085810191909152909401516001600160a01b03166060840152505060a0601f909201601f1916010190565b60008060006060848603121561127c57600080fd5b505081359360208301359350604090920135919050565b80356001600160a01b03811681146112aa57600080fd5b919050565b6000806000606084860312156112c457600080fd5b83359250602084013591506112db60408501611293565b90509250925092565b600080604083850312156112f757600080fd5b8235915061130760208401611293565b90509250929050565b60006020828403121561132257600080fd5b61132b82611293565b9392505050565b600084516113448184602089016111e9565b919091019283525060601b6bffffffffffffffffffffffff19166020820152603401919050565b600181811c9082168061137f57607f821691505b60208210810361139f57634e487b7160e01b600052602260045260246000fd5b50919050565b601f8211156113ef57600081815260208120601f850160051c810160208610156113cc5750805b601f850160051c820191505b818110156113eb578281556001016113d8565b5050505b505050565b815167ffffffffffffffff81111561140e5761140e6110fc565b6114228161141c845461136b565b846113a5565b602080601f831160018114611457576000841561143f5750858301515b600019600386901b1c1916600185901b1785556113eb565b600085815260208120601f198616915b8281101561148657888601518255948401946001909101908401611467565b50858210156114a45787850151600019600388901b60f8161c191681555b5050505050600190811b01905550565b634e487b7160e01b600052602160045260246000fd5b634e487b7160e01b600052601160045260246000fd5b8082028115828204841417610ee057610ee06114ca565b60008261151457634e487b7160e01b600052601260045260246000fd5b500490565b634e487b7160e01b600052603260045260246000fd5b80820180821115610ee057610ee06114ca565b600060018201611554576115546114ca565b5060010190565b81810381811115610ee057610ee06114ca565b60006020828403121561158057600080fd5b5051919050565b600082516115998184602087016111e9565b919091019291505056fea2646970667358221220fc17af3faf880a09053bdf1b1dc03676debff7f2121bfaeb0dab2a3105b7010264736f6c63430008110033",
  "devdoc": {
    "kind": "dev",
    "methods": {
      "calculateCumulativeScore(uint256)": {
        "details": "Calculates the cumulative score of a user.",
        "params": {
          "fid": "Identifier of the user."
        },
        "returns": {
          "_0": "The cumulative score."
        }
      },
      "claimReward(uint256,bytes32,address)": {
        "details": "Allows a user to claim their reward for completing a quiz.",
        "params": {
          "fid": "Identifier of the user.",
          "quizId": "Identifier of the quiz.",
          "recipient": "Address of the reward recipient."
        }
      },
      "completeQuiz(uint256,bytes32,uint256)": {
        "details": "Allows the owner to complete a quiz attempt.",
        "params": {
          "_fid": "Identifier of the user.",
          "_quizId": "Identifier of the quiz.",
          "_score": "Score obtained by the user."
        },
        "returns": {
          "_0": "Whether the user is eligible for reward."
        }
      },
      "constructor": {
        "details": "Constructor function.",
        "params": {
          "_tokenAddress": "The address of the ERC20 token used for rewards."
        }
      },
      "createQuiz(string,uint256)": {
        "details": "Function to create a new quiz.",
        "params": {
          "_quizHash": "IPFS hash of the quiz content.",
          "_threshold": "Reward threshold for the quiz."
        },
        "returns": {
          "quizId": "Identifier of the newly created quiz."
        }
      },
      "getUserData(uint256)": {
        "details": "Function to retrieve user data.",
        "params": {
          "fid": "Identifier of the user."
        },
        "returns": {
          "_0": "userAddress Address of the user.",
          "_1": "score Score of the user."
        }
      },
      "owner()": {
        "details": "Returns the address of the current owner."
      },
      "renounceOwnership()": {
        "details": "Leaves the contract without owner. It will not be possible to call `onlyOwner` functions. Can only be called by the current owner. NOTE: Renouncing ownership will leave the contract without an owner, thereby disabling any functionality that is only available to the owner."
      },
      "restartQuiz(uint256,bytes32)": {
        "details": "Allows a user to restart a quiz attempt.",
        "params": {
          "_fid": "Identifier of the user.",
          "_quizId": "Identifier of the quiz."
        }
      },
      "startQuiz(uint256,bytes32)": {
        "details": "Function to start a quiz attempt.",
        "params": {
          "_fid": "Identifier of the user.",
          "_quizId": "Identifier of the quiz."
        },
        "returns": {
          "quiz": "Quiz details."
        }
      },
      "transferOwnership(address)": {
        "details": "Transfers ownership of the contract to a new account (`newOwner`). Can only be called by the current owner."
      },
      "updateUserData(uint256,address)": {
        "details": "Function to update user data.",
        "params": {
          "fid": "Identifier of the user.",
          "userAddress": "Address of the user."
        }
      }
    },
    "version": 1
  },
  "userdoc": {
    "kind": "user",
    "methods": {},
    "notice": "A smart contract that allows users to create quizzes and earn rewards for completing them. It allows the owner to manage quizzes, quiz metadata, and user activities.",
    "version": 1
  },
  "storageLayout": {
    "storage": [
      {
        "astId": 7,
        "contract": "contracts/Quizer.sol:Quizer",
        "label": "_owner",
        "offset": 0,
        "slot": "0",
        "type": "t_address"
      },
      {
        "astId": 2070,
        "contract": "contracts/Quizer.sol:Quizer",
        "label": "quizToken",
        "offset": 0,
        "slot": "1",
        "type": "t_contract(IERC20)777"
      },
      {
        "astId": 2072,
        "contract": "contracts/Quizer.sol:Quizer",
        "label": "tokenAddress",
        "offset": 0,
        "slot": "2",
        "type": "t_address"
      },
      {
        "astId": 2111,
        "contract": "contracts/Quizer.sol:Quizer",
        "label": "userQuizAttempts",
        "offset": 0,
        "slot": "3",
        "type": "t_mapping(t_uint256,t_mapping(t_bytes32,t_struct(QuizAttempt)2100_storage))"
      },
      {
        "astId": 2116,
        "contract": "contracts/Quizer.sol:Quizer",
        "label": "quizzes",
        "offset": 0,
        "slot": "4",
        "type": "t_mapping(t_bytes32,t_struct(Quiz)2084_storage)"
      },
      {
        "astId": 2121,
        "contract": "contracts/Quizer.sol:Quizer",
        "label": "userData",
        "offset": 0,
        "slot": "5",
        "type": "t_mapping(t_uint256,t_struct(UserData)2077_storage)"
      },
      {
        "astId": 2126,
        "contract": "contracts/Quizer.sol:Quizer",
        "label": "userQuizIds",
        "offset": 0,
        "slot": "6",
        "type": "t_mapping(t_uint256,t_array(t_bytes32)dyn_storage)"
      }
    ],
    "types": {
      "t_address": {
        "encoding": "inplace",
        "label": "address",
        "numberOfBytes": "20"
      },
      "t_array(t_bytes32)dyn_storage": {
        "base": "t_bytes32",
        "encoding": "dynamic_array",
        "label": "bytes32[]",
        "numberOfBytes": "32"
      },
      "t_bool": {
        "encoding": "inplace",
        "label": "bool",
        "numberOfBytes": "1"
      },
      "t_bytes32": {
        "encoding": "inplace",
        "label": "bytes32",
        "numberOfBytes": "32"
      },
      "t_contract(IERC20)777": {
        "encoding": "inplace",
        "label": "contract IERC20",
        "numberOfBytes": "20"
      },
      "t_enum(QuizState)2104": {
        "encoding": "inplace",
        "label": "enum Quizer.QuizState",
        "numberOfBytes": "1"
      },
      "t_mapping(t_bytes32,t_struct(Quiz)2084_storage)": {
        "encoding": "mapping",
        "key": "t_bytes32",
        "label": "mapping(bytes32 => struct Quizer.Quiz)",
        "numberOfBytes": "32",
        "value": "t_struct(Quiz)2084_storage"
      },
      "t_mapping(t_bytes32,t_struct(QuizAttempt)2100_storage)": {
        "encoding": "mapping",
        "key": "t_bytes32",
        "label": "mapping(bytes32 => struct Quizer.QuizAttempt)",
        "numberOfBytes": "32",
        "value": "t_struct(QuizAttempt)2100_storage"
      },
      "t_mapping(t_uint256,t_array(t_bytes32)dyn_storage)": {
        "encoding": "mapping",
        "key": "t_uint256",
        "label": "mapping(uint256 => bytes32[])",
        "numberOfBytes": "32",
        "value": "t_array(t_bytes32)dyn_storage"
      },
      "t_mapping(t_uint256,t_mapping(t_bytes32,t_struct(QuizAttempt)2100_storage))": {
        "encoding": "mapping",
        "key": "t_uint256",
        "label": "mapping(uint256 => mapping(bytes32 => struct Quizer.QuizAttempt))",
        "numberOfBytes": "32",
        "value": "t_mapping(t_bytes32,t_struct(QuizAttempt)2100_storage)"
      },
      "t_mapping(t_uint256,t_struct(UserData)2077_storage)": {
        "encoding": "mapping",
        "key": "t_uint256",
        "label": "mapping(uint256 => struct Quizer.UserData)",
        "numberOfBytes": "32",
        "value": "t_struct(UserData)2077_storage"
      },
      "t_string_storage": {
        "encoding": "bytes",
        "label": "string",
        "numberOfBytes": "32"
      },
      "t_struct(Quiz)2084_storage": {
        "encoding": "inplace",
        "label": "struct Quizer.Quiz",
        "members": [
          {
            "astId": 2079,
            "contract": "contracts/Quizer.sol:Quizer",
            "label": "quizHash",
            "offset": 0,
            "slot": "0",
            "type": "t_string_storage"
          },
          {
            "astId": 2081,
            "contract": "contracts/Quizer.sol:Quizer",
            "label": "threshold",
            "offset": 0,
            "slot": "1",
            "type": "t_uint256"
          },
          {
            "astId": 2083,
            "contract": "contracts/Quizer.sol:Quizer",
            "label": "creator",
            "offset": 0,
            "slot": "2",
            "type": "t_address"
          }
        ],
        "numberOfBytes": "96"
      },
      "t_struct(QuizAttempt)2100_storage": {
        "encoding": "inplace",
        "label": "struct Quizer.QuizAttempt",
        "members": [
          {
            "astId": 2087,
            "contract": "contracts/Quizer.sol:Quizer",
            "label": "state",
            "offset": 0,
            "slot": "0",
            "type": "t_enum(QuizState)2104"
          },
          {
            "astId": 2089,
            "contract": "contracts/Quizer.sol:Quizer",
            "label": "score",
            "offset": 0,
            "slot": "1",
            "type": "t_uint256"
          },
          {
            "astId": 2091,
            "contract": "contracts/Quizer.sol:Quizer",
            "label": "startTime",
            "offset": 0,
            "slot": "2",
            "type": "t_uint256"
          },
          {
            "astId": 2093,
            "contract": "contracts/Quizer.sol:Quizer",
            "label": "completionTime",
            "offset": 0,
            "slot": "3",
            "type": "t_uint256"
          },
          {
            "astId": 2095,
            "contract": "contracts/Quizer.sol:Quizer",
            "label": "eligible",
            "offset": 0,
            "slot": "4",
            "type": "t_bool"
          },
          {
            "astId": 2097,
            "contract": "contracts/Quizer.sol:Quizer",
            "label": "rewardClaimed",
            "offset": 1,
            "slot": "4",
            "type": "t_bool"
          },
          {
            "astId": 2099,
            "contract": "contracts/Quizer.sol:Quizer",
            "label": "restarted",
            "offset": 2,
            "slot": "4",
            "type": "t_bool"
          }
        ],
        "numberOfBytes": "160"
      },
      "t_struct(UserData)2077_storage": {
        "encoding": "inplace",
        "label": "struct Quizer.UserData",
        "members": [
          {
            "astId": 2074,
            "contract": "contracts/Quizer.sol:Quizer",
            "label": "userAddress",
            "offset": 0,
            "slot": "0",
            "type": "t_address"
          },
          {
            "astId": 2076,
            "contract": "contracts/Quizer.sol:Quizer",
            "label": "score",
            "offset": 0,
            "slot": "1",
            "type": "t_uint256"
          }
        ],
        "numberOfBytes": "64"
      },
      "t_uint256": {
        "encoding": "inplace",
        "label": "uint256",
        "numberOfBytes": "32"
      }
    }
  }
}