{
  "address": "0xCd93c505DFc0A2BfC5F1441e26498a9eFE2A3525",
  "abi": [
    {
      "inputs": [
        {
          "internalType": "address",
          "name": "_tokenAddress",
          "type": "address"
        }
      ],
      "stateMutability": "nonpayable",
      "type": "constructor"
    },
    {
      "anonymous": false,
      "inputs": [
        {
          "indexed": true,
          "internalType": "address",
          "name": "previousOwner",
          "type": "address"
        },
        {
          "indexed": true,
          "internalType": "address",
          "name": "newOwner",
          "type": "address"
        }
      ],
      "name": "OwnershipTransferred",
      "type": "event"
    },
    {
      "anonymous": false,
      "inputs": [
        {
          "indexed": true,
          "internalType": "uint256",
          "name": "fid",
          "type": "uint256"
        },
        {
          "indexed": true,
          "internalType": "bytes32",
          "name": "quizId",
          "type": "bytes32"
        },
        {
          "indexed": false,
          "internalType": "uint256",
          "name": "score",
          "type": "uint256"
        },
        {
          "indexed": false,
          "internalType": "uint256",
          "name": "timestamp",
          "type": "uint256"
        },
        {
          "indexed": false,
          "internalType": "bool",
          "name": "eligible",
          "type": "bool"
        }
      ],
      "name": "QuizCompleted",
      "type": "event"
    },
    {
      "anonymous": false,
      "inputs": [
        {
          "indexed": true,
          "internalType": "bytes32",
          "name": "quizId",
          "type": "bytes32"
        },
        {
          "indexed": true,
          "internalType": "address",
          "name": "creator",
          "type": "address"
        }
      ],
      "name": "QuizCreated",
      "type": "event"
    },
    {
      "anonymous": false,
      "inputs": [
        {
          "indexed": true,
          "internalType": "uint256",
          "name": "fid",
          "type": "uint256"
        },
        {
          "indexed": true,
          "internalType": "bytes32",
          "name": "quizId",
          "type": "bytes32"
        },
        {
          "indexed": false,
          "internalType": "uint256",
          "name": "timestamp",
          "type": "uint256"
        },
        {
          "indexed": false,
          "internalType": "string",
          "name": "quizHash",
          "type": "string"
        }
      ],
      "name": "QuizStarted",
      "type": "event"
    },
    {
      "anonymous": false,
      "inputs": [
        {
          "indexed": true,
          "internalType": "uint256",
          "name": "fid",
          "type": "uint256"
        },
        {
          "indexed": false,
          "internalType": "bytes32",
          "name": "quizId",
          "type": "bytes32"
        },
        {
          "indexed": false,
          "internalType": "uint256",
          "name": "rewardAmount",
          "type": "uint256"
        }
      ],
      "name": "RewardClaimed",
      "type": "event"
    },
    {
      "anonymous": false,
      "inputs": [
        {
          "indexed": true,
          "internalType": "uint256",
          "name": "fid",
          "type": "uint256"
        },
        {
          "indexed": true,
          "internalType": "address",
          "name": "userAddress",
          "type": "address"
        }
      ],
      "name": "UserDataUpdated",
      "type": "event"
    },
    {
      "anonymous": false,
      "inputs": [
        {
          "indexed": true,
          "internalType": "uint256",
          "name": "fid",
          "type": "uint256"
        },
        {
          "indexed": false,
          "internalType": "address",
          "name": "",
          "type": "address"
        },
        {
          "indexed": false,
          "internalType": "uint256",
          "name": "score",
          "type": "uint256"
        }
      ],
      "name": "UserScoreUpdated",
      "type": "event"
    },
    {
      "inputs": [
        {
          "internalType": "uint256",
          "name": "fid",
          "type": "uint256"
        }
      ],
      "name": "calculateCumulativeScore",
      "outputs": [
        {
          "internalType": "uint256",
          "name": "",
          "type": "uint256"
        }
      ],
      "stateMutability": "view",
      "type": "function"
    },
    {
      "inputs": [
        {
          "internalType": "uint256",
          "name": "fid",
          "type": "uint256"
        },
        {
          "internalType": "bytes32",
          "name": "quizId",
          "type": "bytes32"
        },
        {
          "internalType": "address",
          "name": "recipient",
          "type": "address"
        }
      ],
      "name": "claimReward",
      "outputs": [],
      "stateMutability": "nonpayable",
      "type": "function"
    },
    {
      "inputs": [
        {
          "internalType": "uint256",
          "name": "_fid",
          "type": "uint256"
        },
        {
          "internalType": "bytes32",
          "name": "_quizId",
          "type": "bytes32"
        },
        {
          "internalType": "uint256",
          "name": "_score",
          "type": "uint256"
        }
      ],
      "name": "completeQuiz",
      "outputs": [],
      "stateMutability": "nonpayable",
      "type": "function"
    },
    {
      "inputs": [
        {
          "internalType": "string",
          "name": "_quizHash",
          "type": "string"
        },
        {
          "internalType": "uint256",
          "name": "_threshold",
          "type": "uint256"
        }
      ],
      "name": "createQuiz",
      "outputs": [],
      "stateMutability": "nonpayable",
      "type": "function"
    },
    {
      "inputs": [
        {
          "internalType": "uint256",
          "name": "fid",
          "type": "uint256"
        }
      ],
      "name": "getUserData",
      "outputs": [
        {
          "internalType": "address",
          "name": "",
          "type": "address"
        },
        {
          "internalType": "uint256",
          "name": "",
          "type": "uint256"
        }
      ],
      "stateMutability": "view",
      "type": "function"
    },
    {
      "inputs": [],
      "name": "owner",
      "outputs": [
        {
          "internalType": "address",
          "name": "",
          "type": "address"
        }
      ],
      "stateMutability": "view",
      "type": "function"
    },
    {
      "inputs": [],
      "name": "renounceOwnership",
      "outputs": [],
      "stateMutability": "nonpayable",
      "type": "function"
    },
    {
      "inputs": [
        {
          "internalType": "uint256",
          "name": "_fid",
          "type": "uint256"
        },
        {
          "internalType": "bytes32",
          "name": "_quizId",
          "type": "bytes32"
        }
      ],
      "name": "restartQuiz",
      "outputs": [],
      "stateMutability": "nonpayable",
      "type": "function"
    },
    {
      "inputs": [
        {
          "internalType": "uint256",
          "name": "_fid",
          "type": "uint256"
        },
        {
          "internalType": "bytes32",
          "name": "_quizId",
          "type": "bytes32"
        }
      ],
      "name": "startQuiz",
      "outputs": [],
      "stateMutability": "nonpayable",
      "type": "function"
    },
    {
      "inputs": [
        {
          "internalType": "address",
          "name": "newOwner",
          "type": "address"
        }
      ],
      "name": "transferOwnership",
      "outputs": [],
      "stateMutability": "nonpayable",
      "type": "function"
    },
    {
      "inputs": [
        {
          "internalType": "uint256",
          "name": "fid",
          "type": "uint256"
        },
        {
          "internalType": "address",
          "name": "userAddress",
          "type": "address"
        }
      ],
      "name": "updateUserData",
      "outputs": [],
      "stateMutability": "nonpayable",
      "type": "function"
    },
    {
      "stateMutability": "payable",
      "type": "receive"
    }
  ],
  "transactionHash": "0xd3e2d13d2d3eca0dd39558f1f19df7caa6974ac4399877393bb05c029774dd9b",
  "args": [
    "0xBebD603574FB8768aA8077e51ED1B00e80207Ee1"
  ],
  "numDeployments": 2,
  "solcInputHash": "905de5ef9eacc23dca859aaa67ae373d",
  "bytecode": "0x608060405234801561001057600080fd5b5060405161152338038061152383398101604081905261002f916100b7565b61003833610067565b600280546001600160a01b039092166001600160a01b03199283168117909155600180549092161790556100e7565b600080546001600160a01b038381166001600160a01b0319831681178455604051919092169283917f8be0079c531659141344cd1fd0a4f28419497f9722a3daafe3b4186f6b6457e09190a35050565b6000602082840312156100c957600080fd5b81516001600160a01b03811681146100e057600080fd5b9392505050565b61142d806100f66000396000f3fe6080604052600436106100a05760003560e01c806381bb6d4b1161006457806381bb6d4b146101865780638da5cb5b146101a65780638f892157146101ce5780639781f81e146101fc578063c6d32e2c1461021c578063f2fde38b1461023c57600080fd5b80631fef580c146100ac57806333f159d01461010f57806354a7128a1461013157806355e06d8314610151578063715018a61461017157600080fd5b366100a757005b600080fd5b3480156100b857600080fd5b506100eb6100c7366004610f57565b600090815260056020526040902080546001909101546001600160a01b0390911691565b604080516001600160a01b0390931683526020830191909152015b60405180910390f35b34801561011b57600080fd5b5061012f61012a366004610f86565b61025c565b005b34801561013d57600080fd5b5061012f61014c36600461103b565b610383565b34801561015d57600080fd5b5061012f61016c36600461105d565b61052f565b34801561017d57600080fd5b5061012f610670565b34801561019257600080fd5b5061012f6101a136600461103b565b610684565b3480156101b257600080fd5b506000546040516001600160a01b039091168152602001610106565b3480156101da57600080fd5b506101ee6101e9366004610f57565b6107c5565b604051908152602001610106565b34801561020857600080fd5b5061012f6102173660046110a5565b6108cf565b34801561022857600080fd5b5061012f6102373660046110da565b6109bf565b34801561024857600080fd5b5061012f610257366004611106565b610a20565b600a8111801561026d575060648111155b6102be5760405162461bcd60e51b815260206004820152601c60248201527f496e76616c6964207468726573686f6c642070657263656e746167650000000060448201526064015b60405180910390fd5b60008282336040516020016102d59392919061114c565b60408051601f1981840301815282825280516020918201206060840183528684528382018690523384840152600081815260049092529190208251919350908190610320908261120e565b5060208201516001820155604091820151600290910180546001600160a01b0319166001600160a01b0390921691909117905551339082907f0dc171d64f02db726d136b17b3dffcfbe8be27a977acf08fc34d1d8f4ad0066690600090a3505050565b6000818152600460205260409020805461039c90611185565b90506000036103de5760405162461bcd60e51b815260206004820152600e60248201526d125b9d985b1a59081c5d5a5e925960921b60448201526064016102b5565b6000828152600560205260409020546001600160a01b03166104065761040682600080610a99565b600082815260036020908152604080832084845290915281205460ff166002811115610434576104346112ce565b1461048f5760405162461bcd60e51b815260206004820152602560248201527f5175697a20616c726561647920696e2070726f6772657373206f7220636f6d706044820152641b195d195960da1b60648201526084016102b5565b600082815260066020908152604082208054600181018255908352908220018290556104ba82610b15565b600084815260036020908152604080832086845290915290819020805460ff1916600117815542600290910181905582519151929350849286927f573d0a82549109c4c921b4aa9aab6fe9ba538ed586cf02659ae8c47929e6870f92610522929091906112e4565b60405180910390a3505050565b60008381526003602090815260408083208584529091528120906005610556846064611334565b610560919061134b565b600483015490915060009062010000900460ff161561059757600a610586836007611334565b610590919061134b565b905061059a565b50805b605081106105ca5760008681526003602090815260408083208884529091529020600401805460ff191660011790555b60006105d5876107c5565b60008881526005602090815260408083206001908101859055885460ff191660021789558801869055426003808a0182905583528184208b85528352928190206004015481518781529283019390935260ff909216151591810191909152909150869088907f9d8988ce87a41bb00b0d2192aefa67f78237b69b35e1f7fba3c99a401d09eb299060600160405180910390a350505050505050565b610678610c10565b6106826000610c6a565b565b6001600083815260036020908152604080832085845290915290205460ff1660028111156106b4576106b46112ce565b14806106ed57506002600083815260036020908152604080832085845290915290205460ff1660028111156106eb576106eb6112ce565b145b61072c5760405162461bcd60e51b815260206004820152601060248201526f145d5a5e881b9bdd0814dd185c9d195960821b60448201526064016102b5565b600082815260036020908152604080832084845290915290206004015462010000900460ff16156107985760405162461bcd60e51b8152602060048201526016602482015275145d5a5e88185b1c9958591e481c995cdd185c9d195960521b60448201526064016102b5565b60009182526003602090815260408084209284529190529020600401805462ff0000191662010000179055565b600081815260066020526040812054819081906107e3906064611334565b905060005b60008581526006602052604090205481101561089e57600085815260066020526040812080548390811061081e5761081e61136d565b60009182526020909120015490506002600087815260036020908152604080832085845290915290205460ff16600281111561085c5761085c6112ce565b0361088b5760008681526003602090815260408083208484529091529020600101546108889085611383565b93505b508061089681611396565b9150506107e8565b50806000036108b1575060009392505050565b806108bd836064611334565b6108c7919061134b565b949350505050565b6000546001600160a01b03163314806108fe57506000838152600560205260409020546001600160a01b031633145b61093f5760405162461bcd60e51b8152602060048201526012602482015271556e617574686f72697a656420636c61696d60701b60448201526064016102b5565b600061094b8484610cba565b90506109578282610d5a565b6000848152600360209081526040808320868452825291829020600401805461ff001916610100179055815185815290810183905285917f59e1733196037919c757919aca3893d4624ebbea78a075ac7f0460aaa5277b03910160405180910390a250505050565b6109c7610c10565b60008281526005602052604080822080546001600160a01b0319166001600160a01b03851690811782559151909285917f0977de286bff160ea2e067a717ea7e46754a77110648bebd1583edd9496d50a69190a3505050565b610a28610c10565b6001600160a01b038116610a8d5760405162461bcd60e51b815260206004820152602660248201527f4f776e61626c653a206e6577206f776e657220697320746865207a65726f206160448201526564647265737360d01b60648201526084016102b5565b610a9681610c6a565b50565b6040805180820182526001600160a01b03848116808352602080840186815260008981526005909252858220945185546001600160a01b031916941693909317845591516001909301929092559151909185917f0977de286bff160ea2e067a717ea7e46754a77110648bebd1583edd9496d50a69190a3505050565b610b426040518060600160405280606081526020016000815260200160006001600160a01b031681525090565b60008281526004602052604090819020815160608101909252805482908290610b6a90611185565b80601f0160208091040260200160405190810160405280929190818152602001828054610b9690611185565b8015610be35780601f10610bb857610100808354040283529160200191610be3565b820191906000526020600020905b815481529060010190602001808311610bc657829003601f168201915b5050509183525050600182015460208201526002909101546001600160a01b031660409091015292915050565b6000546001600160a01b031633146106825760405162461bcd60e51b815260206004820181905260248201527f4f776e61626c653a2063616c6c6572206973206e6f7420746865206f776e657260448201526064016102b5565b600080546001600160a01b038381166001600160a01b0319831681178455604051919092169283917f8be0079c531659141344cd1fd0a4f28419497f9722a3daafe3b4186f6b6457e09190a35050565b60008281526003602081815260408084208585529091528220600281015491810154600182015491929184610cef84846113af565b9050610e106064600a8083851015610d235783610d0c86826113af565b610d16919061134b565b610d209082611334565b90505b610d2d838761134b565b610d379082611334565b9050818110610d465780610d48565b815b99505050505050505050505b92915050565b6002546001600160a01b0316610daa5760405162461bcd60e51b8152602060048201526015602482015274151bdad95b881859191c995cdcc81b9bdd081cd95d605a1b60448201526064016102b5565b6001546040516370a0823160e01b815230600482015282916001600160a01b0316906370a0823190602401602060405180830381865afa158015610df2573d6000803e3d6000fd5b505050506040513d601f19601f82011682018060405250810190610e1691906113c2565b1015610e5b5760405162461bcd60e51b8152602060048201526014602482015273496e73756666696369656e742062616c616e636560601b60448201526064016102b5565b6040516001600160a01b03831660248201526044810182905260009060640160408051601f198184030181529181526020820180516001600160e01b031663a9059cbb60e01b17905260015490519192506000916001600160a01b0390911690610ec69084906113db565b6000604051808303816000865af19150503d8060008114610f03576040519150601f19603f3d011682016040523d82523d6000602084013e610f08565b606091505b5050905080610f515760405162461bcd60e51b8152602060048201526015602482015274151bdad95b881d1c985b9cd9995c8819985a5b1959605a1b60448201526064016102b5565b50505050565b600060208284031215610f6957600080fd5b5035919050565b634e487b7160e01b600052604160045260246000fd5b60008060408385031215610f9957600080fd5b823567ffffffffffffffff80821115610fb157600080fd5b818501915085601f830112610fc557600080fd5b813581811115610fd757610fd7610f70565b604051601f8201601f19908116603f01168101908382118183101715610fff57610fff610f70565b8160405282815288602084870101111561101857600080fd5b826020860160208301376000602093820184015298969091013596505050505050565b6000806040838503121561104e57600080fd5b50508035926020909101359150565b60008060006060848603121561107257600080fd5b505081359360208301359350604090920135919050565b80356001600160a01b03811681146110a057600080fd5b919050565b6000806000606084860312156110ba57600080fd5b83359250602084013591506110d160408501611089565b90509250925092565b600080604083850312156110ed57600080fd5b823591506110fd60208401611089565b90509250929050565b60006020828403121561111857600080fd5b61112182611089565b9392505050565b60005b8381101561114357818101518382015260200161112b565b50506000910152565b6000845161115e818460208901611128565b919091019283525060601b6bffffffffffffffffffffffff19166020820152603401919050565b600181811c9082168061119957607f821691505b6020821081036111b957634e487b7160e01b600052602260045260246000fd5b50919050565b601f82111561120957600081815260208120601f850160051c810160208610156111e65750805b601f850160051c820191505b81811015611205578281556001016111f2565b5050505b505050565b815167ffffffffffffffff81111561122857611228610f70565b61123c816112368454611185565b846111bf565b602080601f83116001811461127157600084156112595750858301515b600019600386901b1c1916600185901b178555611205565b600085815260208120601f198616915b828110156112a057888601518255948401946001909101908401611281565b50858210156112be5787850151600019600388901b60f8161c191681555b5050505050600190811b01905550565b634e487b7160e01b600052602160045260246000fd5b8281526040602082015260008251806040840152611309816060850160208701611128565b601f01601f1916919091016060019392505050565b634e487b7160e01b600052601160045260246000fd5b8082028115828204841417610d5457610d5461131e565b60008261136857634e487b7160e01b600052601260045260246000fd5b500490565b634e487b7160e01b600052603260045260246000fd5b80820180821115610d5457610d5461131e565b6000600182016113a8576113a861131e565b5060010190565b81810381811115610d5457610d5461131e565b6000602082840312156113d457600080fd5b5051919050565b600082516113ed818460208701611128565b919091019291505056fea26469706673582212209c70717e888c4b888403130ea6e4bf3b44762782dc8b3731534af43c6e6ee97264736f6c63430008110033",
  "devdoc": {
    "kind": "dev",
    "methods": {
      "calculateCumulativeScore(uint256)": {
        "details": "Calculates the cumulative score of a user.",
        "params": {
          "fid": "Identifier of the user."
        },
        "returns": {
          "_0": "The cumulative score."
        }
      },
      "claimReward(uint256,bytes32,address)": {
        "details": "Allows a user to claim their reward for completing a quiz.",
        "params": {
          "fid": "Identifier of the user.",
          "quizId": "Identifier of the quiz.",
          "recipient": "Address of the reward recipient."
        }
      },
      "completeQuiz(uint256,bytes32,uint256)": {
        "details": "Allows the owner to complete a quiz attempt.",
        "params": {
          "_fid": "Identifier of the user.",
          "_quizId": "Identifier of the quiz.",
          "_score": "Score obtained by the user."
        }
      },
      "constructor": {
        "details": "Constructor function.",
        "params": {
          "_tokenAddress": "The address of the ERC20 token used for rewards."
        }
      },
      "createQuiz(string,uint256)": {
        "details": "Function to create a new quiz.",
        "params": {
          "_quizHash": "IPFS hash of the quiz content.",
          "_threshold": "Reward threshold for the quiz."
        }
      },
      "getUserData(uint256)": {
        "details": "Function to retrieve user data.",
        "params": {
          "fid": "Identifier of the user."
        },
        "returns": {
          "_0": "userAddress Address of the user.",
          "_1": "score Score of the user."
        }
      },
      "owner()": {
        "details": "Returns the address of the current owner."
      },
      "renounceOwnership()": {
        "details": "Leaves the contract without owner. It will not be possible to call `onlyOwner` functions. Can only be called by the current owner. NOTE: Renouncing ownership will leave the contract without an owner, thereby disabling any functionality that is only available to the owner."
      },
      "restartQuiz(uint256,bytes32)": {
        "details": "Allows a user to restart a quiz attempt.",
        "params": {
          "_fid": "Identifier of the user.",
          "_quizId": "Identifier of the quiz."
        }
      },
      "startQuiz(uint256,bytes32)": {
        "details": "Function to start a quiz attempt.",
        "params": {
          "_fid": "Identifier of the user.",
          "_quizId": "Identifier of the quiz."
        }
      },
      "transferOwnership(address)": {
        "details": "Transfers ownership of the contract to a new account (`newOwner`). Can only be called by the current owner."
      },
      "updateUserData(uint256,address)": {
        "details": "Function to update user data.",
        "params": {
          "fid": "Identifier of the user.",
          "userAddress": "Address of the user."
        }
      }
    },
    "version": 1
  },
  "userdoc": {
    "kind": "user",
    "methods": {},
    "notice": "A smart contract that allows users to create quizzes and earn rewards for completing them. It allows the owner to manage quizzes, quiz metadata, and user activities.",
    "version": 1
  },
  "storageLayout": {
    "storage": [
      {
        "astId": 7,
        "contract": "contracts/Quizer.sol:Quizer",
        "label": "_owner",
        "offset": 0,
        "slot": "0",
        "type": "t_address"
      },
      {
        "astId": 1427,
        "contract": "contracts/Quizer.sol:Quizer",
        "label": "quizToken",
        "offset": 0,
        "slot": "1",
        "type": "t_contract(IERC20)190"
      },
      {
        "astId": 1429,
        "contract": "contracts/Quizer.sol:Quizer",
        "label": "tokenAddress",
        "offset": 0,
        "slot": "2",
        "type": "t_address"
      },
      {
        "astId": 1468,
        "contract": "contracts/Quizer.sol:Quizer",
        "label": "userQuizAttempts",
        "offset": 0,
        "slot": "3",
        "type": "t_mapping(t_uint256,t_mapping(t_bytes32,t_struct(QuizAttempt)1457_storage))"
      },
      {
        "astId": 1473,
        "contract": "contracts/Quizer.sol:Quizer",
        "label": "quizzes",
        "offset": 0,
        "slot": "4",
        "type": "t_mapping(t_bytes32,t_struct(Quiz)1441_storage)"
      },
      {
        "astId": 1478,
        "contract": "contracts/Quizer.sol:Quizer",
        "label": "userData",
        "offset": 0,
        "slot": "5",
        "type": "t_mapping(t_uint256,t_struct(UserData)1434_storage)"
      },
      {
        "astId": 1483,
        "contract": "contracts/Quizer.sol:Quizer",
        "label": "userQuizIds",
        "offset": 0,
        "slot": "6",
        "type": "t_mapping(t_uint256,t_array(t_bytes32)dyn_storage)"
      }
    ],
    "types": {
      "t_address": {
        "encoding": "inplace",
        "label": "address",
        "numberOfBytes": "20"
      },
      "t_array(t_bytes32)dyn_storage": {
        "base": "t_bytes32",
        "encoding": "dynamic_array",
        "label": "bytes32[]",
        "numberOfBytes": "32"
      },
      "t_bool": {
        "encoding": "inplace",
        "label": "bool",
        "numberOfBytes": "1"
      },
      "t_bytes32": {
        "encoding": "inplace",
        "label": "bytes32",
        "numberOfBytes": "32"
      },
      "t_contract(IERC20)190": {
        "encoding": "inplace",
        "label": "contract IERC20",
        "numberOfBytes": "20"
      },
      "t_enum(QuizState)1461": {
        "encoding": "inplace",
        "label": "enum Quizer.QuizState",
        "numberOfBytes": "1"
      },
      "t_mapping(t_bytes32,t_struct(Quiz)1441_storage)": {
        "encoding": "mapping",
        "key": "t_bytes32",
        "label": "mapping(bytes32 => struct Quizer.Quiz)",
        "numberOfBytes": "32",
        "value": "t_struct(Quiz)1441_storage"
      },
      "t_mapping(t_bytes32,t_struct(QuizAttempt)1457_storage)": {
        "encoding": "mapping",
        "key": "t_bytes32",
        "label": "mapping(bytes32 => struct Quizer.QuizAttempt)",
        "numberOfBytes": "32",
        "value": "t_struct(QuizAttempt)1457_storage"
      },
      "t_mapping(t_uint256,t_array(t_bytes32)dyn_storage)": {
        "encoding": "mapping",
        "key": "t_uint256",
        "label": "mapping(uint256 => bytes32[])",
        "numberOfBytes": "32",
        "value": "t_array(t_bytes32)dyn_storage"
      },
      "t_mapping(t_uint256,t_mapping(t_bytes32,t_struct(QuizAttempt)1457_storage))": {
        "encoding": "mapping",
        "key": "t_uint256",
        "label": "mapping(uint256 => mapping(bytes32 => struct Quizer.QuizAttempt))",
        "numberOfBytes": "32",
        "value": "t_mapping(t_bytes32,t_struct(QuizAttempt)1457_storage)"
      },
      "t_mapping(t_uint256,t_struct(UserData)1434_storage)": {
        "encoding": "mapping",
        "key": "t_uint256",
        "label": "mapping(uint256 => struct Quizer.UserData)",
        "numberOfBytes": "32",
        "value": "t_struct(UserData)1434_storage"
      },
      "t_string_storage": {
        "encoding": "bytes",
        "label": "string",
        "numberOfBytes": "32"
      },
      "t_struct(Quiz)1441_storage": {
        "encoding": "inplace",
        "label": "struct Quizer.Quiz",
        "members": [
          {
            "astId": 1436,
            "contract": "contracts/Quizer.sol:Quizer",
            "label": "quizHash",
            "offset": 0,
            "slot": "0",
            "type": "t_string_storage"
          },
          {
            "astId": 1438,
            "contract": "contracts/Quizer.sol:Quizer",
            "label": "threshold",
            "offset": 0,
            "slot": "1",
            "type": "t_uint256"
          },
          {
            "astId": 1440,
            "contract": "contracts/Quizer.sol:Quizer",
            "label": "creator",
            "offset": 0,
            "slot": "2",
            "type": "t_address"
          }
        ],
        "numberOfBytes": "96"
      },
      "t_struct(QuizAttempt)1457_storage": {
        "encoding": "inplace",
        "label": "struct Quizer.QuizAttempt",
        "members": [
          {
            "astId": 1444,
            "contract": "contracts/Quizer.sol:Quizer",
            "label": "state",
            "offset": 0,
            "slot": "0",
            "type": "t_enum(QuizState)1461"
          },
          {
            "astId": 1446,
            "contract": "contracts/Quizer.sol:Quizer",
            "label": "score",
            "offset": 0,
            "slot": "1",
            "type": "t_uint256"
          },
          {
            "astId": 1448,
            "contract": "contracts/Quizer.sol:Quizer",
            "label": "startTime",
            "offset": 0,
            "slot": "2",
            "type": "t_uint256"
          },
          {
            "astId": 1450,
            "contract": "contracts/Quizer.sol:Quizer",
            "label": "completionTime",
            "offset": 0,
            "slot": "3",
            "type": "t_uint256"
          },
          {
            "astId": 1452,
            "contract": "contracts/Quizer.sol:Quizer",
            "label": "eligible",
            "offset": 0,
            "slot": "4",
            "type": "t_bool"
          },
          {
            "astId": 1454,
            "contract": "contracts/Quizer.sol:Quizer",
            "label": "rewardClaimed",
            "offset": 1,
            "slot": "4",
            "type": "t_bool"
          },
          {
            "astId": 1456,
            "contract": "contracts/Quizer.sol:Quizer",
            "label": "restarted",
            "offset": 2,
            "slot": "4",
            "type": "t_bool"
          }
        ],
        "numberOfBytes": "160"
      },
      "t_struct(UserData)1434_storage": {
        "encoding": "inplace",
        "label": "struct Quizer.UserData",
        "members": [
          {
            "astId": 1431,
            "contract": "contracts/Quizer.sol:Quizer",
            "label": "userAddress",
            "offset": 0,
            "slot": "0",
            "type": "t_address"
          },
          {
            "astId": 1433,
            "contract": "contracts/Quizer.sol:Quizer",
            "label": "score",
            "offset": 0,
            "slot": "1",
            "type": "t_uint256"
          }
        ],
        "numberOfBytes": "64"
      },
      "t_uint256": {
        "encoding": "inplace",
        "label": "uint256",
        "numberOfBytes": "32"
      }
    }
  }
}